{
  "contractName": "TicketFan",
  "abi": [
    {
      "constant": true,
      "inputs": [],
      "name": "name",
      "outputs": [
        {
          "name": "",
          "type": "string"
        }
      ],
      "payable": false,
      "stateMutability": "view",
      "type": "function"
    },
    {
      "constant": true,
      "inputs": [
        {
          "name": "",
          "type": "uint256"
        }
      ],
      "name": "tickets",
      "outputs": [
        {
          "name": "id",
          "type": "uint256"
        },
        {
          "name": "artist",
          "type": "string"
        },
        {
          "name": "price",
          "type": "uint256"
        },
        {
          "name": "TicketNum",
          "type": "uint256"
        },
        {
          "name": "SeatNum",
          "type": "uint256"
        },
        {
          "name": "SectionNum",
          "type": "uint256"
        },
        {
          "name": "owner",
          "type": "address"
        },
        {
          "name": "purchased",
          "type": "bool"
        }
      ],
      "payable": false,
      "stateMutability": "view",
      "type": "function"
    },
    {
      "constant": true,
      "inputs": [],
      "name": "ticketCount",
      "outputs": [
        {
          "name": "",
          "type": "uint256"
        }
      ],
      "payable": false,
      "stateMutability": "view",
      "type": "function"
    },
    {
      "inputs": [],
      "payable": false,
      "stateMutability": "nonpayable",
      "type": "constructor"
    },
    {
      "anonymous": false,
      "inputs": [
        {
          "indexed": false,
          "name": "id",
          "type": "uint256"
        },
        {
          "indexed": false,
          "name": "artist",
          "type": "string"
        },
        {
          "indexed": false,
          "name": "price",
          "type": "uint256"
        },
        {
          "indexed": false,
          "name": "TicketNum",
          "type": "uint256"
        },
        {
          "indexed": false,
          "name": "SeatNum",
          "type": "uint256"
        },
        {
          "indexed": false,
          "name": "SectionNum",
          "type": "uint256"
        },
        {
          "indexed": false,
          "name": "owner",
          "type": "address"
        },
        {
          "indexed": false,
          "name": "purchased",
          "type": "bool"
        }
      ],
      "name": "TicketCreated",
      "type": "event"
    },
    {
      "anonymous": false,
      "inputs": [
        {
          "indexed": false,
          "name": "id",
          "type": "uint256"
        },
        {
          "indexed": false,
          "name": "artist",
          "type": "string"
        },
        {
          "indexed": false,
          "name": "price",
          "type": "uint256"
        },
        {
          "indexed": false,
          "name": "TicketNum",
          "type": "uint256"
        },
        {
          "indexed": false,
          "name": "SeatNum",
          "type": "uint256"
        },
        {
          "indexed": false,
          "name": "SectionNum",
          "type": "uint256"
        },
        {
          "indexed": false,
          "name": "owner",
          "type": "address"
        },
        {
          "indexed": false,
          "name": "purchased",
          "type": "bool"
        }
      ],
      "name": "TicketPurchased",
      "type": "event"
    },
    {
      "constant": false,
      "inputs": [
        {
          "name": "_artist",
          "type": "string"
        },
        {
          "name": "_price",
          "type": "uint256"
        },
        {
          "name": "_TicketNum",
          "type": "uint256"
        },
        {
          "name": "_SeatNum",
          "type": "uint256"
        },
        {
          "name": "_SectionNum",
          "type": "uint256"
        }
      ],
      "name": "createTicket",
      "outputs": [],
      "payable": false,
      "stateMutability": "nonpayable",
      "type": "function"
    },
    {
      "constant": false,
      "inputs": [
        {
          "name": "_id",
          "type": "uint256"
        }
      ],
      "name": "purchaseTicket",
      "outputs": [],
      "payable": true,
      "stateMutability": "payable",
      "type": "function"
    }
  ],
  "bytecode": "0x6080604052600060015534801561001557600080fd5b506040805190810160405280600a81526020017f5469636b657446616e730000000000000000000000000000000000000000000081525060009080519060200190610061929190610067565b5061010c565b828054600181600116156101000203166002900490600052602060002090601f016020900481019282601f106100a857805160ff19168380011785556100d6565b828001600101855582156100d6579182015b828111156100d55782518255916020019190600101906100ba565b5b5090506100e391906100e7565b5090565b61010991905b808211156101055760008160009055506001016100ed565b5090565b90565b610d498061011b6000396000f3fe60806040526004361061006d576000357c0100000000000000000000000000000000000000000000000000000000900463ffffffff16806306fdde0314610072578063179a386b1461010257806350b44712146101f2578063b948348c14610307578063cfbd900f14610335575b600080fd5b34801561007e57600080fd5b50610087610360565b6040518080602001828103825283818151815260200191508051906020019080838360005b838110156100c75780820151818401526020810190506100ac565b50505050905090810190601f1680156100f45780820380516001836020036101000a031916815260200191505b509250505060405180910390f35b34801561010e57600080fd5b506101f0600480360360a081101561012557600080fd5b810190808035906020019064010000000081111561014257600080fd5b82018360208201111561015457600080fd5b8035906020019184600183028401116401000000008311171561017657600080fd5b91908080601f016020809104026020016040519081016040528093929190818152602001838380828437600081840152601f19601f820116905080830192505050505050509192919290803590602001909291908035906020019092919080359060200190929190803590602001909291905050506103fe565b005b3480156101fe57600080fd5b5061022b6004803603602081101561021557600080fd5b810190808035906020019092919050505061068e565b60405180898152602001806020018881526020018781526020018681526020018581526020018473ffffffffffffffffffffffffffffffffffffffff1673ffffffffffffffffffffffffffffffffffffffff16815260200183151515158152602001828103825289818151815260200191508051906020019080838360005b838110156102c55780820151818401526020810190506102aa565b50505050905090810190601f1680156102f25780820380516001836020036101000a031916815260200191505b50995050505050505050505060405180910390f35b6103336004803603602081101561031d57600080fd5b810190808035906020019092919050505061079b565b005b34801561034157600080fd5b5061034a610c14565b6040518082815260200191505060405180910390f35b60008054600181600116156101000203166002900480601f0160208091040260200160405190810160405280929190818152602001828054600181600116156101000203166002900480156103f65780601f106103cb576101008083540402835291602001916103f6565b820191906000526020600020905b8154815290600101906020018083116103d957829003601f168201915b505050505081565b6000855111151561040e57600080fd5b60008411151561041d57600080fd5b60008311151561042c57600080fd5b60008211151561043b57600080fd5b60008111151561044a57600080fd5b6001600081548092919060010191905055506101006040519081016040528060015481526020018681526020018581526020018481526020018381526020018281526020013373ffffffffffffffffffffffffffffffffffffffff168152602001600015158152506002600060015481526020019081526020016000206000820151816000015560208201518160010190805190602001906104ed929190610c1a565b5060408201518160020155606082015181600301556080820151816004015560a0820151816005015560c08201518160060160006101000a81548173ffffffffffffffffffffffffffffffffffffffff021916908373ffffffffffffffffffffffffffffffffffffffff16021790555060e08201518160060160146101000a81548160ff0219169083151502179055509050507f85b0af75b8e7d54243234cb3e52559befab288717eaf8d87d045a151d6a91393600154868686868633600060405180898152602001806020018881526020018781526020018681526020018581526020018473ffffffffffffffffffffffffffffffffffffffff1673ffffffffffffffffffffffffffffffffffffffff16815260200183151515158152602001828103825289818151815260200191508051906020019080838360005b8381101561064657808201518184015260208101905061062b565b50505050905090810190601f1680156106735780820380516001836020036101000a031916815260200191505b50995050505050505050505060405180910390a15050505050565b6002602052806000526040600020600091509050806000015490806001018054600181600116156101000203166002900480601f0160208091040260200160405190810160405280929190818152602001828054600181600116156101000203166002900480156107405780601f1061071557610100808354040283529160200191610740565b820191906000526020600020905b81548152906001019060200180831161072357829003601f168201915b5050505050908060020154908060030154908060040154908060050154908060060160009054906101000a900473ffffffffffffffffffffffffffffffffffffffff16908060060160149054906101000a900460ff16905088565b6107a3610c9a565b60026000838152602001908152602001600020610100604051908101604052908160008201548152602001600182018054600181600116156101000203166002900480601f0160208091040260200160405190810160405280929190818152602001828054600181600116156101000203166002900480156108665780601f1061083b57610100808354040283529160200191610866565b820191906000526020600020905b81548152906001019060200180831161084957829003601f168201915b50505050508152602001600282015481526020016003820154815260200160048201548152602001600582015481526020016006820160009054906101000a900473ffffffffffffffffffffffffffffffffffffffff1673ffffffffffffffffffffffffffffffffffffffff1673ffffffffffffffffffffffffffffffffffffffff1681526020016006820160149054906101000a900460ff161515151581525050905060008160c0015190506000826000015111801561092d5750600154826000015111155b151561093857600080fd5b8160400151341015151561094b57600080fd5b8160e0015115151561095c57600080fd5b3373ffffffffffffffffffffffffffffffffffffffff168173ffffffffffffffffffffffffffffffffffffffff161415151561099757600080fd5b338260c0019073ffffffffffffffffffffffffffffffffffffffff16908173ffffffffffffffffffffffffffffffffffffffff168152505060018260e00190151590811515815250508160026000858152602001908152602001600020600082015181600001556020820151816001019080519060200190610a1a929190610c1a565b5060408201518160020155606082015181600301556080820151816004015560a0820151816005015560c08201518160060160006101000a81548173ffffffffffffffffffffffffffffffffffffffff021916908373ffffffffffffffffffffffffffffffffffffffff16021790555060e08201518160060160146101000a81548160ff0219169083151502179055509050508073ffffffffffffffffffffffffffffffffffffffff166108fc349081150290604051600060405180830381858888f19350505050158015610af3573d6000803e3d6000fd5b507fc210b9f8879d37dfaa56454798d1a407365fafa82928ce9d692bb9f15239a6a160015483602001518460400151856060015186608001518760a0015133600160405180898152602001806020018881526020018781526020018681526020018581526020018473ffffffffffffffffffffffffffffffffffffffff1673ffffffffffffffffffffffffffffffffffffffff16815260200183151515158152602001828103825289818151815260200191508051906020019080838360005b83811015610bce578082015181840152602081019050610bb3565b50505050905090810190601f168015610bfb5780820380516001836020036101000a031916815260200191505b50995050505050505050505060405180910390a1505050565b60015481565b828054600181600116156101000203166002900490600052602060002090601f016020900481019282601f10610c5b57805160ff1916838001178555610c89565b82800160010185558215610c89579182015b82811115610c88578251825591602001919060010190610c6d565b5b509050610c969190610cf8565b5090565b61010060405190810160405280600081526020016060815260200160008152602001600081526020016000815260200160008152602001600073ffffffffffffffffffffffffffffffffffffffff1681526020016000151581525090565b610d1a91905b80821115610d16576000816000905550600101610cfe565b5090565b9056fea165627a7a72305820230a702c722200aa873183f73e12130cf6e91dd5bbf82356d263d4e26193a6f20029",
  "source": "pragma solidity >=0.5.0;\n\n\ncontract TicketFan{\n    string public name;\n    uint public ticketCount = 0;\n    mapping(uint => Ticket) public tickets;\n\n    struct Ticket{\n        uint id;\n        string artist;\n        uint price;\n        uint TicketNum;\n        uint SeatNum;\n        uint SectionNum;\n        address payable owner;\n        bool purchased;\n    }\n\n\nevent TicketCreated(uint id,\n        string artist,\n        uint price,\n        uint TicketNum,\n        uint SeatNum,\n        uint SectionNum,\n        address payable owner,\n        bool purchased\n        );\n\nevent TicketPurchased(uint id,\n        string artist,\n        uint price,\n        uint TicketNum,\n        uint SeatNum,\n        uint SectionNum,\n        address payable owner,\n        bool purchased\n        );\n\n\n    constructor() public{\nname  = \"TicketFans\";\n\n    }\n\nfunction createTicket(string memory _artist, uint _price, uint _TicketNum, uint _SeatNum, uint _SectionNum) public{\n\nrequire(bytes(_artist).length > 0);\n\nrequire(_price>0);\n\nrequire(_TicketNum > 0);\nrequire(_SeatNum > 0);\nrequire(_SectionNum > 0);\n\n\nticketCount++;//intement ticket count\n\ntickets[ticketCount] = Ticket(ticketCount,_artist,_price,_TicketNum, _SeatNum,_SectionNum, msg.sender,false );//create ticket\n\nemit TicketCreated (ticketCount,_artist,_price,_TicketNum, _SeatNum,_SectionNum, msg.sender,false);\n\n}\n\n\nfunction purchaseTicket(uint _id) public payable{\n\nTicket memory _ticket = tickets[_id];//get ticket\n\naddress payable _seller = _ticket.owner;//get owner\n\nrequire(_ticket.id >0 && _ticket.id <= ticketCount);//valid id\n\nrequire(msg.value >= _ticket.price);\n\nrequire(!_ticket.purchased);\n\nrequire(_seller != msg.sender);\n\n_ticket.owner = msg.sender;//give owner ship\n\n_ticket.purchased = true; //confirm purchase\n\ntickets[_id] = _ticket;//update ticket\n\naddress(_seller).transfer(msg.value);//[pay seller]\n\nemit TicketPurchased (ticketCount,_ticket.artist,_ticket.price,_ticket.TicketNum,_ticket.SeatNum,_ticket.SectionNum, msg.sender,true);\n\n\n}\n\n\n}",
  "sourcePath": "/mnt/c/Users/leon_/.VScodeWorkspace/CMPE183TicketFans/src/contracts/TicketFans.sol",
  "compiler": {
    "name": "solc",
    "version": "0.5.0+commit.1d4f565a.Emscripten.clang"
  },
  "schemaVersion": "3.4.7",
  "updatedAt": "2022-05-12T06:22:09.143Z",
  "networkType": "ethereum",
  "devdoc": {
    "methods": {}
  },
  "userdoc": {
    "methods": {}
  }
}